:060000000A128A110C280F
:10000800FE00030EF0000A08F1000A128A11FC280B
:100018000A128A110C2922200A128A1137200A1280
:100028008A1141200A128A1161200A128A116D2050
:100038000A128A1174200A128A11782885018316F7
:1000480085010317880189018312031386019F30F4
:1000580083168600FF3081179500831287010730C9
:100068008316870008008B170B138B160B128B1146
:100078000B118B100B1001170800053081120116A7
:10008800811101118110011483128100901610163C
:1000980090111015901083160C10831210108E01F9
:1000A8008F0183168C10831212139212121292155A
:1000B8001211921412149101080080309F008316C7
:1000C8009F009F121F1283121F119F111F129F1250
:1000D800080083160C110D10831297019D0108006A
:1000E80003178701880108007030831603138F00F7
:1000F8000800F400013E8400001990287408013EAD
:10010800840000157408063E840006088000740800
:10011800063E84000F3080050608F3000F30F30513
:100128007408063E840073080002F200F208031DFA
:10013800B7287408083E8400800A7408083E8400C2
:1001480000081E3A031D08007408083E8400800158
:100158007408063E8400730880007408073E840013
:10016800730880000800F2017408013E8400001141
:100178000800F200013E840000107208023E84006C
:10018800800A7208023E84000008143A031D080021
:100198007208023E840080017208013E84008014C7
:1001A8007208033E8400800A7208033E8400000837
:1001B8000A3A031D08007208033E84008001080003
:1001C8000A128A110F200A128A118312211CF2289E
:1001D80020300A128A11BD200A128A11A11CE928AE
:1001E8002030A1100A128A117D200A128A11E928EA
:1001F8008B1A0B1D05290B118312031305302114CB
:10020800810071088A00700E8300FE0E7E0E0900C0
:10021800A001A101A201A301A401A501A601A701B2
:0C022800A801A90183010A128A11E42830
:04400E0004EBFFFFC1
:00000001FF
