:060000000A128A110C280F
:10000800FE00030EF0000A08F1000A128A11FE2908
:100018000A128A11182A22200A128A1137200A1273
:100028008A1141200A128A1161200A128A116D2050
:100038000A128A1174200A128A11782885018316F7
:1000480085010317880189018312031386019F30F4
:1000580083168600FF3081179500831287010730C9
:100068008316870008008B170B138B160B128B1146
:100078000B118B100B1001170800053081120116A7
:10008800811101118110011483128100901610163C
:1000980090111015901083160C10831210108E01F9
:1000A8008F0183168C10831212139212121292155A
:1000B8001211921412149101080080309F008316C7
:1000C8009F009F121F1283121F119F111F129F1250
:1000D800080083160C110D10831297019D0108006A
:1000E80003178701880108007030831603138F00F7
:1000F80008000A128A110F200A128A110A30831284
:10010800A000B728B12820300A128A116F210A12DC
:100118008A11B72820300A128A11D5210A128A11A9
:10012800B72820300A128A11C0210A128A11B7286A
:1001380020300A128A11AB210A128A11B7282030FE
:100148000A128A1194210A128A11B72820300A1239
:100158008A11EA210A128A11B72820300A128A1154
:100168000E220A128A11211CBF2820300A128A1175
:10017800E2200A128A11A11CC8282030A1100A12F4
:100188008A112F210A128A1120080A3A031986288F
:100198001E3A031987280A3A03198E28363A031992
:1001A8009528053A03199C281F3A0319A3280E3AE3
:1001B8000319AA28B1280A128A110C28F200013E54
:1001C800840000107208023E8400800A7208023E11
:1001D80084000008143A031D08007208023E8400D7
:1001E80080017208013E840080147208033E840076
:1001F800800A7208033E840000080A3A031D0800BA
:100208007208033E840080017208073E840080085B
:1002180003191C297208073E840080037208073EF0
:1002280084008008031D1C2972080B3E84000010FE
:100238007208083E84008008031908007208083E06
:10024800840080037208083E84008008031D0800AB
:10025800851105110800F400013E840000194229A7
:100268007408013E840000157408093E84000608DD
:1002780080007408093E84001F3080050608F300DA
:100288001F30F3057408093E840073080002F20069
:10029800F208031D69297408063E8400800A740860
:1002A800063E84000008323A031D08007408063E22
:1002B800840080017408093E840073088000740873
:1002C8000A3E8400730880000800F2017408013EA9
:1002D800840000110800F200093E84007208001C26
:1002E800792984001E3080007208093E8400720853
:1002F800801C82298400283080007208093E84000E
:100308007208001E8B2984002D3080007208093E77
:100318008400001D08007208840032308000080044
:10032800F2000515051485140516083E84000A30E8
:1003380080007208073E84001430800072080B3E6B
:1003480084000014720884003C3080000800F20029
:1003580005168515083E84000A3080007208073E9D
:1003680084001430800072080B3E84000014720868
:1003780084003C3080000800F20085148515083E92
:1003880084000A3080007208073E84001430800020
:1003980072080B3E84000014720884003C30800010
:1003A8000800F20005148515083E84000A30800014
:1003B8007208073E84001430800072080B3E8400E7
:1003C8000014720884003C3080000800F2000B3EE4
:1003D8008400001808007208093E8400801D080087
:1003E8000510851005120511851172088400143056
:1003F800800008008B1A0B1D072A0B1183120313A8
:1004080005302114810071088A00700E8300FE0EE9
:100418007E0E0900F20005108510051205118511E0
:10042800840014308000080083010A128A117D2894
:02400E0004EBC1
:00000001FF
